{
  "contractName": "PresalePool",
  "abi": [
    {
      "constant": false,
      "inputs": [],
      "name": "setTransferedState",
      "outputs": [],
      "payable": false,
      "stateMutability": "nonpayable",
      "type": "function"
    },
    {
      "constant": false,
      "inputs": [],
      "name": "getContributedSum",
      "outputs": [
        {
          "name": "",
          "type": "uint256"
        }
      ],
      "payable": false,
      "stateMutability": "nonpayable",
      "type": "function"
    },
    {
      "constant": false,
      "inputs": [],
      "name": "close",
      "outputs": [],
      "payable": false,
      "stateMutability": "nonpayable",
      "type": "function"
    },
    {
      "constant": false,
      "inputs": [
        {
          "name": "tokenAddress",
          "type": "address"
        }
      ],
      "name": "getTokens",
      "outputs": [],
      "payable": false,
      "stateMutability": "nonpayable",
      "type": "function"
    },
    {
      "constant": false,
      "inputs": [
        {
          "name": "participant",
          "type": "address"
        }
      ],
      "name": "removeFromWhitelist",
      "outputs": [],
      "payable": false,
      "stateMutability": "nonpayable",
      "type": "function"
    },
    {
      "constant": true,
      "inputs": [],
      "name": "owner",
      "outputs": [
        {
          "name": "",
          "type": "address"
        }
      ],
      "payable": false,
      "stateMutability": "view",
      "type": "function"
    },
    {
      "constant": false,
      "inputs": [
        {
          "name": "token",
          "type": "address"
        }
      ],
      "name": "sendContribution",
      "outputs": [],
      "payable": false,
      "stateMutability": "nonpayable",
      "type": "function"
    },
    {
      "constant": false,
      "inputs": [
        {
          "name": "_admins",
          "type": "address[]"
        }
      ],
      "name": "init",
      "outputs": [],
      "payable": false,
      "stateMutability": "nonpayable",
      "type": "function"
    },
    {
      "constant": false,
      "inputs": [],
      "name": "contribute",
      "outputs": [],
      "payable": true,
      "stateMutability": "payable",
      "type": "function"
    },
    {
      "constant": false,
      "inputs": [
        {
          "name": "participant",
          "type": "address"
        }
      ],
      "name": "addToWhitelist",
      "outputs": [],
      "payable": false,
      "stateMutability": "nonpayable",
      "type": "function"
    },
    {
      "inputs": [],
      "payable": false,
      "stateMutability": "nonpayable",
      "type": "constructor"
    },
    {
      "anonymous": false,
      "inputs": [
        {
          "indexed": false,
          "name": "participant",
          "type": "address"
        }
      ],
      "name": "AddedToWhiteList",
      "type": "event"
    },
    {
      "anonymous": false,
      "inputs": [],
      "name": "Closed",
      "type": "event"
    },
    {
      "anonymous": false,
      "inputs": [],
      "name": "Transfered",
      "type": "event"
    },
    {
      "anonymous": false,
      "inputs": [],
      "name": "Paid",
      "type": "event"
    }
  ],
  "bytecode": "0x6060604052341561000f57600080fd5b33600260006101000a81548173ffffffffffffffffffffffffffffffffffffffff021916908373ffffffffffffffffffffffffffffffffffffffff160217905550610af98061005f6000396000f3006060604052600436106100a4576000357c0100000000000000000000000000000000000000000000000000000000900463ffffffff1680630bd6f13b146100a95780633e938180146100be57806343d726d6146100e7578063450efe21146100fc5780638ab1d681146101355780638da5cb5b1461016e578063956c6bcc146101c3578063c6044c46146101fc578063d7bb99ba14610256578063e43252d714610260575b600080fd5b34156100b457600080fd5b6100bc610299565b005b34156100c957600080fd5b6100d16102ee565b6040518082815260200191505060405180910390f35b34156100f257600080fd5b6100fa61033c565b005b341561010757600080fd5b610133600480803573ffffffffffffffffffffffffffffffffffffffff169060200190919050506103ea565b005b341561014057600080fd5b61016c600480803573ffffffffffffffffffffffffffffffffffffffff16906020019091905050610557565b005b341561017957600080fd5b610181610614565b604051808273ffffffffffffffffffffffffffffffffffffffff1673ffffffffffffffffffffffffffffffffffffffff16815260200191505060405180910390f35b34156101ce57600080fd5b6101fa600480803573ffffffffffffffffffffffffffffffffffffffff1690602001909190505061063a565b005b341561020757600080fd5b61025460048080359060200190820180359060200190808060200260200160405190810160405280939291908181526020018383602002808284378201915050505050509190505061074c565b005b61025e610810565b005b341561026b57600080fd5b610297600480803573ffffffffffffffffffffffffffffffffffffffff16906020019091905050610905565b005b6003600160000160006101000a81548160ff021916908360038111156102bb57fe5b02179055507f1b87233bd10d3e9ce8a455a70db34cbf9c904a9359f012b458af7908b484b52460405160405180910390a1565b6000806000803373ffffffffffffffffffffffffffffffffffffffff1673ffffffffffffffffffffffffffffffffffffffff1681526020019081526020016000209050806001015491505090565b6000803373ffffffffffffffffffffffffffffffffffffffff1673ffffffffffffffffffffffffffffffffffffffff16815260200190815260200160002060000160009054906101000a900460ff16151561039657600080fd5b60018060000160006101000a81548160ff021916908360038111156103b757fe5b02179055507f1cdde67b72a90f19919ac732a437ac2f7a10fc128d28c2a6e525d89ce5cd9d3a60405160405180910390a1565b6000806000803373ffffffffffffffffffffffffffffffffffffffff1673ffffffffffffffffffffffffffffffffffffffff16815260200190815260200160002060000160019054906101000a900460ff16151561044757600080fd5b60038081111561045357fe5b600160000160009054906101000a900460ff16600381111561047157fe5b14151561047d57600080fd5b61048633610a25565b91508290508073ffffffffffffffffffffffffffffffffffffffff1663a9059cbb33846000604051602001526040518363ffffffff167c0100000000000000000000000000000000000000000000000000000000028152600401808373ffffffffffffffffffffffffffffffffffffffff1673ffffffffffffffffffffffffffffffffffffffff16815260200182815260200192505050602060405180830381600087803b151561053657600080fd5b6102c65a03f1151561054757600080fd5b5050506040518051905050505050565b60008060003373ffffffffffffffffffffffffffffffffffffffff1673ffffffffffffffffffffffffffffffffffffffff16815260200190815260200160002060000160009054906101000a900460ff1615156105b357600080fd5b6000808373ffffffffffffffffffffffffffffffffffffffff1673ffffffffffffffffffffffffffffffffffffffff168152602001908152602001600020905060008160000160016101000a81548160ff0219169083151502179055505050565b600260009054906101000a900473ffffffffffffffffffffffffffffffffffffffff1681565b6000803373ffffffffffffffffffffffffffffffffffffffff1673ffffffffffffffffffffffffffffffffffffffff16815260200190815260200160002060000160009054906101000a900460ff16151561069457600080fd5b600160038111156106a157fe5b600160000160009054906101000a900460ff1660038111156106bf57fe5b1415156106cb57600080fd5b8073ffffffffffffffffffffffffffffffffffffffff166108fc3073ffffffffffffffffffffffffffffffffffffffff16319081150290604051600060405180830381858888f19350505050151561072257600080fd5b6002600160000160006101000a81548160ff0219169083600381111561074457fe5b021790555050565b6000600260009054906101000a900473ffffffffffffffffffffffffffffffffffffffff1673ffffffffffffffffffffffffffffffffffffffff163373ffffffffffffffffffffffffffffffffffffffff161415156107aa57600080fd5b6000600160000160006101000a81548160ff021916908360038111156107cc57fe5b0217905550600090505b815181101561080c576107ff82828151811015156107f057fe5b90602001906020020151610a2f565b80806001019150506107d6565b5050565b60008060003373ffffffffffffffffffffffffffffffffffffffff1673ffffffffffffffffffffffffffffffffffffffff16815260200190815260200160002060000160019054906101000a900460ff16151561086c57600080fd5b6000600381111561087957fe5b600160000160009054906101000a900460ff16600381111561089757fe5b1415156108a357600080fd5b6000803373ffffffffffffffffffffffffffffffffffffffff1673ffffffffffffffffffffffffffffffffffffffff16815260200190815260200160002090506108fa348260010154610aaf90919063ffffffff16565b816001018190555050565b60008060003373ffffffffffffffffffffffffffffffffffffffff1673ffffffffffffffffffffffffffffffffffffffff16815260200190815260200160002060000160009054906101000a900460ff16151561096157600080fd5b6000808373ffffffffffffffffffffffffffffffffffffffff1673ffffffffffffffffffffffffffffffffffffffff168152602001908152602001600020905060018160000160016101000a81548160ff0219169083151502179055507f8a3be376fdc726be3f3cee8e59ba5698a268a9b59f69cdabcf06d2ec2c90658f82604051808273ffffffffffffffffffffffffffffffffffffffff1673ffffffffffffffffffffffffffffffffffffffff16815260200191505060405180910390a15050565b6000809050919050565b60008060008373ffffffffffffffffffffffffffffffffffffffff1673ffffffffffffffffffffffffffffffffffffffff168152602001908152602001600020905060018160000160006101000a81548160ff02191690831515021790555060018160000160016101000a81548160ff0219169083151502179055505050565b6000808284019050838110151515610ac357fe5b80915050929150505600a165627a7a7230582020b47dcdd128c2b3132741d03ec1df964eabee3ba1b8e94f5d7813336584dd790029",
  "source": "\npragma solidity 0.4.18;\n\nimport \"./SafeMath.sol\";\n\ninterface ERC20 {\n    function transfer(address _to, uint _value) public returns (bool success);\n    function balanceOf(address _owner) public constant returns (uint balance);\n}\n\ncontract PresalePool {\n\n  using SafeMath for uint;\n\n  enum PresaleState { Opened, Closed, Paid, Transfered}\n\n  modifier onlyOwner() {\n    require(msg.sender == owner);\n    _;\n  }\n\n  modifier onlyAdmin()\n  {\n    require(participantsInfo[msg.sender].admin);\n    _;\n  }\n\n  modifier onlyWhitelisted()\n  {\n    require(participantsInfo[msg.sender].isWhitelisted);\n    _;\n  }\n\n  modifier whenClosed()\n  {\n    require(presaleInfo.state == PresaleState.Closed);\n    _;\n  }\n\n  modifier whenOpened()\n  {\n    require(presaleInfo.state == PresaleState.Opened);\n    _;\n  }\n\n  modifier whenTransfered()\n  {\n    require(presaleInfo.state == PresaleState.Transfered);\n    _;\n  }\n\n  struct PresaleInfo\n  {\n    PresaleState state;\n  }\n\n  struct Participant\n  {\n    bool admin;\n    bool isWhitelisted;\n    uint sum;\n  }\n\n  event AddedToWhiteList(address participant);\n  event Closed();\n  event Transfered();\n  event Paid();\n\n  mapping (address=> Participant) participantsInfo;\n  PresaleInfo private presaleInfo;\n  address public owner;\n\n  function PresalePool() public\n  {\n    owner = msg.sender;\n  }\n\n  function init(address[] _admins) public onlyOwner\n  {\n    presaleInfo.state = PresaleState.Opened;\n    for (uint i = 0; i < _admins.length; i++) {\n        addAdmin(_admins[i]);\n    }\n  }\n\n  function addAdmin(address admin) internal\n  {\n    Participant storage adminInfo = participantsInfo[admin];\n    adminInfo.admin = true;\n    adminInfo.isWhitelisted = true;\n  }\n\n  function contribute() onlyWhitelisted whenOpened payable external\n  {\n    Participant storage participant = participantsInfo[msg.sender];\n    participant.sum = participant.sum.add(msg.value);\n  }\n\n  function getContributedSum() returns(uint)\n  {\n    Participant storage participant = participantsInfo[msg.sender];\n    return participant.sum;\n  }\n\n  function close() onlyAdmin\n  {\n    presaleInfo.state = PresaleState.Closed;\n    Closed();\n  }\n\n  function sendContribution(address token) onlyAdmin whenClosed external\n  {\n    token.transfer(this.balance);\n    presaleInfo.state = PresaleState.Paid;\n  }\n\n  function getTokens(address tokenAddress) external onlyWhitelisted whenTransfered\n  {\n    uint reward = calculateTokens(msg.sender);\n    ERC20 token = ERC20(tokenAddress);\n\n    token.transfer(msg.sender, reward);\n  }\n\n  function setTransferedState()\n  {\n    presaleInfo.state = PresaleState.Transfered;\n    Transfered();\n  }\n\n  function calculateTokens(address participant) internal returns(uint)\n  {\n    return 0;\n  }\n\n  function addToWhitelist(address participant) external onlyAdmin\n  {\n    Participant storage participantInfo = participantsInfo[participant];\n    participantInfo.isWhitelisted = true;\n    AddedToWhiteList(participant);\n  }\n\n  function removeFromWhitelist(address participant) external onlyAdmin\n  {\n    Participant storage participantInfo = participantsInfo[participant];\n    participantInfo.isWhitelisted = false;\n  }\n}\n",
  "sourcePath": "/Users/dzhambulatkhasayev/Blockchain/PresalePool/contracts/PresalePool.sol",
  "compiler": {
    "name": "solc",
    "version": "0.4.18+commit.9cf6e910.Emscripten.clang"
  },
  "schemaVersion": "1.0.1",
  "updatedAt": "2018-04-28T11:57:30.847Z"
}