{
  "contractName": "PresalePool",
  "abi": [
    {
      "constant": false,
      "inputs": [
        {
          "name": "participant",
          "type": "address"
        }
      ],
      "name": "removeFromWhiteList",
      "outputs": [],
      "payable": false,
      "stateMutability": "nonpayable",
      "type": "function"
    },
    {
      "constant": true,
      "inputs": [
        {
          "name": "",
          "type": "uint256"
        }
      ],
      "name": "admins",
      "outputs": [
        {
          "name": "",
          "type": "address"
        }
      ],
      "payable": false,
      "stateMutability": "view",
      "type": "function"
    },
    {
      "constant": false,
      "inputs": [
        {
          "name": "tokenAddress",
          "type": "address"
        }
      ],
      "name": "getTokens",
      "outputs": [],
      "payable": false,
      "stateMutability": "nonpayable",
      "type": "function"
    },
    {
      "constant": false,
      "inputs": [
        {
          "name": "participant",
          "type": "address"
        }
      ],
      "name": "addToWhiteList",
      "outputs": [],
      "payable": false,
      "stateMutability": "nonpayable",
      "type": "function"
    },
    {
      "constant": false,
      "inputs": [
        {
          "name": "token",
          "type": "address"
        }
      ],
      "name": "sendContribution",
      "outputs": [
        {
          "name": "",
          "type": "uint256"
        }
      ],
      "payable": false,
      "stateMutability": "nonpayable",
      "type": "function"
    },
    {
      "constant": false,
      "inputs": [
        {
          "name": "token",
          "type": "address"
        }
      ],
      "name": "contribute",
      "outputs": [],
      "payable": true,
      "stateMutability": "payable",
      "type": "function"
    },
    {
      "constant": false,
      "inputs": [
        {
          "name": "_admins",
          "type": "address[]"
        }
      ],
      "name": "contribute",
      "outputs": [],
      "payable": false,
      "stateMutability": "nonpayable",
      "type": "constructor"
    },
    {
      "inputs": [
        {
          "name": "_admins",
          "type": "address[]"
        }
      ],
      "payable": false,
      "stateMutability": "nonpayable",
      "type": "constructor"
    }
  ],
  "bytecode": "0x6060604052341561000f57600080fd5b6040516107cf3803806107cf833981016040528080518201919050508060009080519060200190610041929190610048565b5050610115565b8280548282559060005260206000209081019282156100c1579160200282015b828111156100c05782518260006101000a81548173ffffffffffffffffffffffffffffffffffffffff021916908373ffffffffffffffffffffffffffffffffffffffff16021790555091602001919060010190610068565b5b5090506100ce91906100d2565b5090565b61011291905b8082111561010e57600081816101000a81549073ffffffffffffffffffffffffffffffffffffffff0219169055506001016100d8565b5090565b90565b6106ab806101246000396000f300606060405260043610610078576000357c0100000000000000000000000000000000000000000000000000000000900463ffffffff16806301bf66481461007d57806314bfd6d0146100b6578063450efe211461011957806347ee039414610152578063956c6bcc1461018b578063d7bb99ba146101c4575b600080fd5b341561008857600080fd5b6100b4600480803573ffffffffffffffffffffffffffffffffffffffff169060200190919050506101ce565b005b34156100c157600080fd5b6100d7600480803590602001909190505061028d565b604051808273ffffffffffffffffffffffffffffffffffffffff1673ffffffffffffffffffffffffffffffffffffffff16815260200191505060405180910390f35b341561012457600080fd5b610150600480803573ffffffffffffffffffffffffffffffffffffffff169060200190919050506102cc565b005b341561015d57600080fd5b610189600480803573ffffffffffffffffffffffffffffffffffffffff16906020019091905050610423565b005b341561019657600080fd5b6101c2600480803573ffffffffffffffffffffffffffffffffffffffff169060200190919050506104e2565b005b6101cc610597565b005b6000600160003373ffffffffffffffffffffffffffffffffffffffff1673ffffffffffffffffffffffffffffffffffffffff16815260200190815260200160002060000160009054906101000a900460ff16151561022b57600080fd5b600160008373ffffffffffffffffffffffffffffffffffffffff1673ffffffffffffffffffffffffffffffffffffffff168152602001908152602001600020905060008160000160016101000a81548160ff0219169083151502179055505050565b60008181548110151561029c57fe5b90600052602060002090016000915054906101000a900473ffffffffffffffffffffffffffffffffffffffff1681565b600080600160003373ffffffffffffffffffffffffffffffffffffffff1673ffffffffffffffffffffffffffffffffffffffff16815260200190815260200160002060000160019054906101000a900460ff16151561032a57600080fd5b600260000160009054906101000a900460ff1615151561034957600080fd5b61035233610657565b91508290508073ffffffffffffffffffffffffffffffffffffffff1663a9059cbb33846000604051602001526040518363ffffffff167c0100000000000000000000000000000000000000000000000000000000028152600401808373ffffffffffffffffffffffffffffffffffffffff1673ffffffffffffffffffffffffffffffffffffffff16815260200182815260200192505050602060405180830381600087803b151561040257600080fd5b6102c65a03f1151561041357600080fd5b5050506040518051905050505050565b6000600160003373ffffffffffffffffffffffffffffffffffffffff1673ffffffffffffffffffffffffffffffffffffffff16815260200190815260200160002060000160009054906101000a900460ff16151561048057600080fd5b600160008373ffffffffffffffffffffffffffffffffffffffff1673ffffffffffffffffffffffffffffffffffffffff168152602001908152602001600020905060018160000160016101000a81548160ff0219169083151502179055505050565b600160003373ffffffffffffffffffffffffffffffffffffffff1673ffffffffffffffffffffffffffffffffffffffff16815260200190815260200160002060000160009054906101000a900460ff16151561053d57600080fd5b8073ffffffffffffffffffffffffffffffffffffffff166108fc3073ffffffffffffffffffffffffffffffffffffffff16319081150290604051600060405180830381858888f19350505050151561059457600080fd5b50565b6000600160003373ffffffffffffffffffffffffffffffffffffffff1673ffffffffffffffffffffffffffffffffffffffff16815260200190815260200160002060000160019054906101000a900460ff1615156105f457600080fd5b600160003373ffffffffffffffffffffffffffffffffffffffff1673ffffffffffffffffffffffffffffffffffffffff168152602001908152602001600020905061064c34826001015461066190919063ffffffff16565b816001018190555050565b6000809050919050565b600080828401905083811015151561067557fe5b80915050929150505600a165627a7a723058206fd55710853ab697bbad4b26ed76f6289f2bbd0ae8db1db75f3ced6e402ea8090029",
  "source": "\npragma solidity 0.4.18;\n\nimport \"./SafeMath.sol\";\n\ninterface ERC20 {\n    function transfer(address _to, uint _value) public returns (bool success);\n    function balanceOf(address _owner) public constant returns (uint balance);\n}\n\ncontract PresalePool {\n\n  using SafeMath for uint;\n  modifier onlyAdmin()\n  {\n    require(participantsInfo[msg.sender].admin);\n    _;\n  }\n\n  modifier onlyWhitelisted()\n  {\n    require(participantsInfo[msg.sender].isWhitelisted);\n    _;\n  }\n\n  modifier whenClosed()\n  {\n    require(!presaleInfo.closed);\n    _;\n  }\n\n  address[] public admins;\n\n  struct PresaleInfo\n  {\n    bool closed;\n  }\n\n  struct Participant\n  {\n    bool admin;\n    bool isWhitelisted;\n    uint sum;\n  }\n\n  mapping (address=> Participant) participantsInfo;\n  PresaleInfo private presaleInfo;\n\n  function PresalePool(address[] _admins)\n  {\n    admins = _admins;\n  }\n\n  function addAdmin(address admin) internal\n  {\n    Participant storage adminInfo = participantsInfo[admin];\n    adminInfo.admin = true;\n    adminInfo.isWhitelisted = true;\n  }\n\n  function contribute() onlyWhitelisted payable external\n  {\n    Participant storage participant = participantsInfo[msg.sender];\n    participant.sum = participant.sum.add(msg.value);\n  }\n\n  function sendContribution(address token) onlyAdmin external\n  {\n    token.transfer(this.balance);\n  }\n\n  function getTokens(address tokenAddress) external onlyWhitelisted whenClosed\n  {\n    uint reward = calculateTokens(msg.sender);\n    ERC20 token = ERC20(tokenAddress);\n\n    token.transfer(msg.sender, reward);\n  }\n\n  function calculateTokens(address participant) internal returns(uint)\n  {\n    return 0;\n  }\n\n  function addToWhiteList(address participant) external onlyAdmin\n  {\n    Participant storage participantInfo = participantsInfo[participant];\n    participantInfo.isWhitelisted = true;\n  }\n\n  function removeFromWhiteList(address participant) external onlyAdmin\n  {\n    Participant storage participantInfo = participantsInfo[participant];\n    participantInfo.isWhitelisted = false;\n  }\n}\n",
  "sourcePath": "/Users/dzhambulatkhasayev/Blockchain/PresalePool/contracts/PresalePool.sol",
  "compiler": {
    "name": "solc",
    "version": "0.4.18+commit.9cf6e910.Emscripten.clang"
  },
  "schemaVersion": "1.0.1",
  "updatedAt": "2018-04-27T14:00:28.066Z"
}