{
  "contractName": "PresalePool",
  "abi": [
    {
      "constant": true,
      "inputs": [],
      "name": "exchangeRate",
      "outputs": [
        {
          "name": "",
          "type": "uint256"
        }
      ],
      "payable": false,
      "stateMutability": "view",
      "type": "function"
    },
    {
      "constant": true,
      "inputs": [],
      "name": "distributionWallet",
      "outputs": [
        {
          "name": "",
          "type": "address"
        }
      ],
      "payable": false,
      "stateMutability": "view",
      "type": "function"
    },
    {
      "constant": true,
      "inputs": [],
      "name": "owner",
      "outputs": [
        {
          "name": "",
          "type": "address"
        }
      ],
      "payable": false,
      "stateMutability": "view",
      "type": "function"
    },
    {
      "constant": true,
      "inputs": [],
      "name": "poolDistributionWallet",
      "outputs": [
        {
          "name": "",
          "type": "address"
        }
      ],
      "payable": false,
      "stateMutability": "view",
      "type": "function"
    },
    {
      "inputs": [],
      "payable": false,
      "stateMutability": "nonpayable",
      "type": "constructor"
    },
    {
      "anonymous": false,
      "inputs": [
        {
          "indexed": false,
          "name": "participant",
          "type": "address"
        }
      ],
      "name": "AddedToWhiteList",
      "type": "event"
    },
    {
      "anonymous": false,
      "inputs": [],
      "name": "Closed",
      "type": "event"
    },
    {
      "anonymous": false,
      "inputs": [],
      "name": "Transfered",
      "type": "event"
    },
    {
      "anonymous": false,
      "inputs": [
        {
          "indexed": false,
          "name": "balance",
          "type": "uint256"
        }
      ],
      "name": "Paid",
      "type": "event"
    },
    {
      "anonymous": false,
      "inputs": [
        {
          "indexed": false,
          "name": "participant",
          "type": "address"
        },
        {
          "indexed": false,
          "name": "tokens",
          "type": "uint256"
        }
      ],
      "name": "GotTokens",
      "type": "event"
    },
    {
      "anonymous": false,
      "inputs": [
        {
          "indexed": false,
          "name": "feePerEther",
          "type": "uint256"
        }
      ],
      "name": "TeamFeeSetted",
      "type": "event"
    },
    {
      "anonymous": false,
      "inputs": [
        {
          "indexed": false,
          "name": "feePerEther",
          "type": "uint256"
        }
      ],
      "name": "PoolFeeSetted",
      "type": "event"
    },
    {
      "anonymous": false,
      "inputs": [
        {
          "indexed": false,
          "name": "participant",
          "type": "address"
        }
      ],
      "name": "ParticipateContributed",
      "type": "event"
    },
    {
      "anonymous": false,
      "inputs": [
        {
          "indexed": false,
          "name": "participant",
          "type": "address"
        },
        {
          "indexed": false,
          "name": "amount",
          "type": "uint256"
        }
      ],
      "name": "ParticipantWithdrawed",
      "type": "event"
    },
    {
      "constant": false,
      "inputs": [
        {
          "name": "_admins",
          "type": "address[]"
        },
        {
          "name": "_distributionWallet",
          "type": "address"
        },
        {
          "name": "_poolDistributionWallet",
          "type": "address"
        }
      ],
      "name": "init",
      "outputs": [],
      "payable": false,
      "stateMutability": "nonpayable",
      "type": "function"
    },
    {
      "constant": false,
      "inputs": [],
      "name": "contribute",
      "outputs": [],
      "payable": true,
      "stateMutability": "payable",
      "type": "function"
    },
    {
      "constant": false,
      "inputs": [],
      "name": "withdrawContribution",
      "outputs": [],
      "payable": false,
      "stateMutability": "nonpayable",
      "type": "function"
    },
    {
      "constant": false,
      "inputs": [
        {
          "name": "token",
          "type": "address"
        },
        {
          "name": "gasLimit",
          "type": "uint256"
        },
        {
          "name": "data",
          "type": "bytes"
        }
      ],
      "name": "sendContribution",
      "outputs": [],
      "payable": false,
      "stateMutability": "nonpayable",
      "type": "function"
    },
    {
      "constant": false,
      "inputs": [
        {
          "name": "tokenAddress",
          "type": "address"
        }
      ],
      "name": "getTokens",
      "outputs": [],
      "payable": false,
      "stateMutability": "nonpayable",
      "type": "function"
    },
    {
      "constant": false,
      "inputs": [
        {
          "name": "_startDate",
          "type": "uint256"
        },
        {
          "name": "_endDate",
          "type": "uint256"
        },
        {
          "name": "_minContribution",
          "type": "uint256"
        },
        {
          "name": "_maxContribution",
          "type": "uint256"
        }
      ],
      "name": "setPresaleSettings",
      "outputs": [],
      "payable": false,
      "stateMutability": "nonpayable",
      "type": "function"
    },
    {
      "constant": false,
      "inputs": [
        {
          "name": "rate",
          "type": "uint256"
        },
        {
          "name": "decimals",
          "type": "uint256"
        }
      ],
      "name": "setTokenRate",
      "outputs": [],
      "payable": false,
      "stateMutability": "nonpayable",
      "type": "function"
    },
    {
      "constant": false,
      "inputs": [
        {
          "name": "fee",
          "type": "uint256"
        }
      ],
      "name": "setTeamFeePerEther",
      "outputs": [],
      "payable": false,
      "stateMutability": "nonpayable",
      "type": "function"
    },
    {
      "constant": false,
      "inputs": [
        {
          "name": "fee",
          "type": "uint256"
        }
      ],
      "name": "setPoolFeePerEther",
      "outputs": [],
      "payable": false,
      "stateMutability": "nonpayable",
      "type": "function"
    },
    {
      "constant": false,
      "inputs": [],
      "name": "sendFeeToTeam",
      "outputs": [],
      "payable": false,
      "stateMutability": "nonpayable",
      "type": "function"
    },
    {
      "constant": false,
      "inputs": [],
      "name": "sendFeeToPoolAdmin",
      "outputs": [],
      "payable": false,
      "stateMutability": "nonpayable",
      "type": "function"
    },
    {
      "constant": false,
      "inputs": [
        {
          "name": "participant",
          "type": "address"
        }
      ],
      "name": "addToWhitelist",
      "outputs": [],
      "payable": false,
      "stateMutability": "nonpayable",
      "type": "function"
    },
    {
      "constant": false,
      "inputs": [
        {
          "name": "participant",
          "type": "address"
        }
      ],
      "name": "removeFromWhitelist",
      "outputs": [],
      "payable": false,
      "stateMutability": "nonpayable",
      "type": "function"
    },
    {
      "constant": true,
      "inputs": [],
      "name": "getContributedSum",
      "outputs": [
        {
          "name": "",
          "type": "uint256"
        }
      ],
      "payable": false,
      "stateMutability": "view",
      "type": "function"
    },
    {
      "constant": true,
      "inputs": [],
      "name": "getContributedSumAfterFees",
      "outputs": [
        {
          "name": "",
          "type": "uint256"
        }
      ],
      "payable": false,
      "stateMutability": "view",
      "type": "function"
    },
    {
      "constant": false,
      "inputs": [],
      "name": "setTransferedState",
      "outputs": [],
      "payable": false,
      "stateMutability": "nonpayable",
      "type": "function"
    },
    {
      "constant": false,
      "inputs": [],
      "name": "close",
      "outputs": [],
      "payable": false,
      "stateMutability": "nonpayable",
      "type": "function"
    }
  ],
  "bytecode": "0x608060405234801561001057600080fd5b5033600660006101000a81548173ffffffffffffffffffffffffffffffffffffffff021916908373ffffffffffffffffffffffffffffffffffffffff160217905550611909806100616000396000f30060806040526004361061011d576000357c0100000000000000000000000000000000000000000000000000000000900463ffffffff168063080814c1146101225780630bd6f13b1461014f5780630d616d20146101665780630fdd0fb91461017d5780632275a745146101aa578063279590d3146101f557806338e7920a1461020c5780633ba0b9a9146102435780633e9381801461026e578063427986bb1461029957806343d726d6146102b0578063450efe21146102c7578063467d01191461030a57806348a25c27146103615780638a6f9b0c146103dc5780638ab1d681146104075780638da5cb5b1461044a5780639dc9c990146104a1578063d7bb99ba146104f8578063e43252d714610502578063e4c5143514610545575b600080fd5b34801561012e57600080fd5b5061014d600480360381019080803590602001909291905050506105aa565b005b34801561015b57600080fd5b50610164610645565b005b34801561017257600080fd5b5061017b6106f4565b005b34801561018957600080fd5b506101a860048036038101908080359060200190929190505050610896565b005b3480156101b657600080fd5b506101f360048036038101908080359060200190929190803590602001909291908035906020019092919080359060200190929190505050610933565b005b34801561020157600080fd5b5061020a6109ba565b005b34801561021857600080fd5b506102416004803603810190808035906020019092919080359060200190929190505050610a89565b005b34801561024f57600080fd5b50610258610af5565b6040518082815260200191505060405180910390f35b34801561027a57600080fd5b50610283610afb565b6040518082815260200191505060405180910390f35b3480156102a557600080fd5b506102ae610b44565b005b3480156102bc57600080fd5b506102c5610c15565b005b3480156102d357600080fd5b50610308600480360381019080803573ffffffffffffffffffffffffffffffffffffffff169060200190929190505050610cc3565b005b34801561031657600080fd5b5061031f610e2d565b604051808273ffffffffffffffffffffffffffffffffffffffff1673ffffffffffffffffffffffffffffffffffffffff16815260200191505060405180910390f35b34801561036d57600080fd5b506103da600480360381019080803590602001908201803590602001919091929391929390803573ffffffffffffffffffffffffffffffffffffffff169060200190929190803573ffffffffffffffffffffffffffffffffffffffff169060200190929190505050610e53565b005b3480156103e857600080fd5b506103f1610fb1565b6040518082815260200191505060405180910390f35b34801561041357600080fd5b50610448600480360381019080803573ffffffffffffffffffffffffffffffffffffffff169060200190929190505050611055565b005b34801561045657600080fd5b5061045f611112565b604051808273ffffffffffffffffffffffffffffffffffffffff1673ffffffffffffffffffffffffffffffffffffffff16815260200191505060405180910390f35b3480156104ad57600080fd5b506104b6611138565b604051808273ffffffffffffffffffffffffffffffffffffffff1673ffffffffffffffffffffffffffffffffffffffff16815260200191505060405180910390f35b61050061115e565b005b34801561050e57600080fd5b50610543600480360381019080803573ffffffffffffffffffffffffffffffffffffffff169060200190929190505050611321565b005b34801561055157600080fd5b506105a8600480360381019080803573ffffffffffffffffffffffffffffffffffffffff16906020019092919080359060200190929190803590602001908201803590602001919091929391929390505050611441565b005b6000803373ffffffffffffffffffffffffffffffffffffffff1673ffffffffffffffffffffffffffffffffffffffff16815260200190815260200160002060000160009054906101000a900460ff16151561060457600080fd5b80600d819055507fa2c10e25458eacd842347098934507187ac58713110271b23fafec304afe7f25816040518082815260200191505060405180910390a150565b6000803373ffffffffffffffffffffffffffffffffffffffff1673ffffffffffffffffffffffffffffffffffffffff16815260200190815260200160002060000160009054906101000a900460ff16151561069f57600080fd5b6003600160000160006101000a81548160ff021916908360038111156106c157fe5b02179055507f1b87233bd10d3e9ce8a455a70db34cbf9c904a9359f012b458af7908b484b52460405160405180910390a1565b6106fc6118b7565b6000600381111561070957fe5b600160000160009054906101000a900460ff16600381111561072757fe5b14151561073357600080fd5b6000803373ffffffffffffffffffffffffffffffffffffffff1673ffffffffffffffffffffffffffffffffffffffff168152602001908152602001600020606060405190810160405290816000820160009054906101000a900460ff161515151581526020016000820160019054906101000a900460ff1615151515815260200160018201548152505090506107d88160400151600b546115bd90919063ffffffff16565b600b819055503373ffffffffffffffffffffffffffffffffffffffff16816040015160405160006040518083038185875af192505050151561081957600080fd5b7fe3d93743f204674c98514925744aa8a083f1607d474d6c3c3746023f0dfe2341338260400151604051808373ffffffffffffffffffffffffffffffffffffffff1673ffffffffffffffffffffffffffffffffffffffff1681526020018281526020019250505060405180910390a1600081604001818152505050565b600660009054906101000a900473ffffffffffffffffffffffffffffffffffffffff1673ffffffffffffffffffffffffffffffffffffffff163373ffffffffffffffffffffffffffffffffffffffff161415156108f257600080fd5b80600c819055507f6d1a867a430335fcdcb5c9b035e40e6a920c335179e9c274524ce292e50b03f8816040518082815260200191505060405180910390a150565b6000803373ffffffffffffffffffffffffffffffffffffffff1673ffffffffffffffffffffffffffffffffffffffff16815260200190815260200160002060000160009054906101000a900460ff16151561098d57600080fd5b83600160030181905550826001600401819055508160018001819055508060016002018190555050505050565b6000803373ffffffffffffffffffffffffffffffffffffffff1673ffffffffffffffffffffffffffffffffffffffff16815260200190815260200160002060000160009054906101000a900460ff161515610a1457600080fd5b600860009054906101000a900473ffffffffffffffffffffffffffffffffffffffff1673ffffffffffffffffffffffffffffffffffffffff166108fc610a5b600b546115d6565b9081150290604051600060405180830381858888f19350505050158015610a86573d6000803e3d6000fd5b50565b6000803373ffffffffffffffffffffffffffffffffffffffff1673ffffffffffffffffffffffffffffffffffffffff16815260200190815260200160002060000160009054906101000a900460ff161515610ae357600080fd5b8160098190555080600a819055505050565b60095481565b60008060003373ffffffffffffffffffffffffffffffffffffffff1673ffffffffffffffffffffffffffffffffffffffff16815260200190815260200160002060010154905090565b600660009054906101000a900473ffffffffffffffffffffffffffffffffffffffff1673ffffffffffffffffffffffffffffffffffffffff163373ffffffffffffffffffffffffffffffffffffffff16141515610ba057600080fd5b600760009054906101000a900473ffffffffffffffffffffffffffffffffffffffff1673ffffffffffffffffffffffffffffffffffffffff166108fc610be7600b54611613565b9081150290604051600060405180830381858888f19350505050158015610c12573d6000803e3d6000fd5b50565b6000803373ffffffffffffffffffffffffffffffffffffffff1673ffffffffffffffffffffffffffffffffffffffff16815260200190815260200160002060000160009054906101000a900460ff161515610c6f57600080fd5b60018060000160006101000a81548160ff02191690836003811115610c9057fe5b02179055507f1cdde67b72a90f19919ac732a437ac2f7a10fc128d28c2a6e525d89ce5cd9d3a60405160405180910390a1565b600080610ccf33611650565b91508290508073ffffffffffffffffffffffffffffffffffffffff1663a9059cbb33846040518363ffffffff167c0100000000000000000000000000000000000000000000000000000000028152600401808373ffffffffffffffffffffffffffffffffffffffff1673ffffffffffffffffffffffffffffffffffffffff16815260200182815260200192505050602060405180830381600087803b158015610d7757600080fd5b505af1158015610d8b573d6000803e3d6000fd5b505050506040513d6020811015610da157600080fd5b81019080805190602001909291905050501515610dbd57600080fd5b7f0debb524b8a2c0d207653bb9826d5e0023e165ce06b486bbdcb932a6b0c90a0e3383604051808373ffffffffffffffffffffffffffffffffffffffff1673ffffffffffffffffffffffffffffffffffffffff1681526020018281526020019250505060405180910390a1505050565b600760009054906101000a900473ffffffffffffffffffffffffffffffffffffffff1681565b6000600660009054906101000a900473ffffffffffffffffffffffffffffffffffffffff1673ffffffffffffffffffffffffffffffffffffffff163373ffffffffffffffffffffffffffffffffffffffff16141515610eb157600080fd5b6000600160000160006101000a81548160ff02191690836003811115610ed357fe5b021790555082600760006101000a81548173ffffffffffffffffffffffffffffffffffffffff021916908373ffffffffffffffffffffffffffffffffffffffff16021790555081600860006101000a81548173ffffffffffffffffffffffffffffffffffffffff021916908373ffffffffffffffffffffffffffffffffffffffff160217905550600090505b84849050811015610faa57610f9d8585838181101515610f7b57fe5b9050602002013573ffffffffffffffffffffffffffffffffffffffff166116f3565b8080600101915050610f5f565b5050505050565b60006110506110006000803373ffffffffffffffffffffffffffffffffffffffff1673ffffffffffffffffffffffffffffffffffffffff168152602001908152602001600020600101546117aa565b6000803373ffffffffffffffffffffffffffffffffffffffff1673ffffffffffffffffffffffffffffffffffffffff168152602001908152602001600020600101546115bd90919063ffffffff16565b905090565b60008060003373ffffffffffffffffffffffffffffffffffffffff1673ffffffffffffffffffffffffffffffffffffffff16815260200190815260200160002060000160009054906101000a900460ff1615156110b157600080fd5b6000808373ffffffffffffffffffffffffffffffffffffffff1673ffffffffffffffffffffffffffffffffffffffff168152602001908152602001600020905060008160000160016101000a81548160ff0219169083151502179055505050565b600660009054906101000a900473ffffffffffffffffffffffffffffffffffffffff1681565b600860009054906101000a900473ffffffffffffffffffffffffffffffffffffffff1681565b60008060003373ffffffffffffffffffffffffffffffffffffffff1673ffffffffffffffffffffffffffffffffffffffff16815260200190815260200160002060000160019054906101000a900460ff1615156111ba57600080fd5b600060038111156111c757fe5b600160000160009054906101000a900460ff1660038111156111e557fe5b1415156111f157600080fd5b60006001600301541415801561120d5750600060016004015414155b1561123857600160030154421015801561122c57506001600401544211155b151561123757600080fd5b5b611241346117fb565b6000803373ffffffffffffffffffffffffffffffffffffffff1673ffffffffffffffffffffffffffffffffffffffff168152602001908152602001600020905061129834826001015461184390919063ffffffff16565b81600101819055506112b534600b5461184390919063ffffffff16565b600b819055507f7ffd3011d7f5818910898d3074dde898369d24eb465d413c71a55fad57424ef033604051808273ffffffffffffffffffffffffffffffffffffffff1673ffffffffffffffffffffffffffffffffffffffff16815260200191505060405180910390a150565b60008060003373ffffffffffffffffffffffffffffffffffffffff1673ffffffffffffffffffffffffffffffffffffffff16815260200190815260200160002060000160009054906101000a900460ff16151561137d57600080fd5b6000808373ffffffffffffffffffffffffffffffffffffffff1673ffffffffffffffffffffffffffffffffffffffff168152602001908152602001600020905060018160000160016101000a81548160ff0219169083151502179055507f8a3be376fdc726be3f3cee8e59ba5698a268a9b59f69cdabcf06d2ec2c90658f82604051808273ffffffffffffffffffffffffffffffffffffffff1673ffffffffffffffffffffffffffffffffffffffff16815260200191505060405180910390a15050565b6000806000803373ffffffffffffffffffffffffffffffffffffffff1673ffffffffffffffffffffffffffffffffffffffff16815260200190815260200160002060000160009054906101000a900460ff16151561149e57600080fd5b600160038111156114ab57fe5b600160000160009054906101000a900460ff1660038111156114c957fe5b1415156114d557600080fd5b6114e0600b546117aa565b9150600085116114f0575a6114f2565b845b90508573ffffffffffffffffffffffffffffffffffffffff168183600b5403868660405180838380828437820191505092505050600060405180830381858888f19350505050151561154357600080fd5b6002600160000160006101000a81548160ff0219169083600381111561156557fe5b02179055507f581d416ae9dff30c9305c2b35cb09ed5991897ab97804db29ccf92678e9531606115a083600b546115bd90919063ffffffff16565b6040518082815260200191505060405180910390a1505050505050565b60008282111515156115cb57fe5b818303905092915050565b600080611608670de0b6b3a76400006115fa600d548661186190919063ffffffff16565b61189c90919063ffffffff16565b905080915050919050565b600080611645670de0b6b3a7640000611637600c548661186190919063ffffffff16565b61189c90919063ffffffff16565b905080915050919050565b6000806000806000808673ffffffffffffffffffffffffffffffffffffffff1673ffffffffffffffffffffffffffffffffffffffff1681526020019081526020016000206001015492506116a3836117aa565b91506116b882846115bd90919063ffffffff16565b92506116e66009546116d885600a54600a0a61186190919063ffffffff16565b61189c90919063ffffffff16565b9050809350505050919050565b60016000808373ffffffffffffffffffffffffffffffffffffffff1673ffffffffffffffffffffffffffffffffffffffff16815260200190815260200160002060000160006101000a81548160ff02191690831515021790555060016000808373ffffffffffffffffffffffffffffffffffffffff1673ffffffffffffffffffffffffffffffffffffffff16815260200190815260200160002060000160016101000a81548160ff02191690831515021790555050565b6000806117f0670de0b6b3a76400006117e26117d3600c54600d5461184390919063ffffffff16565b8661186190919063ffffffff16565b61189c90919063ffffffff16565b905080915050919050565b60006001800154141580156118165750600060016002015414155b15611840576001800154811015801561183457506001600201548111155b151561183f57600080fd5b5b50565b600080828401905083811015151561185757fe5b8091505092915050565b60008060008414156118765760009150611895565b828402905082848281151561188757fe5b0414151561189157fe5b8091505b5092915050565b60008082848115156118aa57fe5b0490508091505092915050565b6060604051908101604052806000151581526020016000151581526020016000815250905600a165627a7a7230582026bdba4123b6b181d136ea9df75cb1163de869cb16b100f9c05da56022d10dc50029",
  "source": "\npragma solidity 0.4.23;\n\nimport \"./SafeMath.sol\";\n\ninterface ERC20 {\n    function transfer(address _to, uint _value) external returns (bool success);\n    function balanceOf(address _owner) external view returns (uint balance);\n}\n\ncontract PresalePool {\n\n  using SafeMath for uint;\n\n  enum PresaleState { Opened, Closed, Paid, Transfered}\n\n  modifier onlyOwner() {\n    require(msg.sender == owner);\n    _;\n  }\n\n  modifier onlyAdmin()\n  {\n    require(participantsInfo[msg.sender].admin);\n    _;\n  }\n\n  modifier onlyWhitelisted()\n  {\n    require(participantsInfo[msg.sender].isWhitelisted);\n    _;\n  }\n\n  modifier onlyInDate()\n  {\n    if (presaleInfo.startDate!=0 && presaleInfo.endDate!=0)\n    {\n      require(now >= presaleInfo.startDate && now <= presaleInfo.endDate);\n    }\n    _;\n  }\n\n  modifier whenClosed()\n  {\n    require(presaleInfo.state == PresaleState.Closed);\n    _;\n  }\n\n  modifier whenOpened()\n  {\n    require(presaleInfo.state == PresaleState.Opened);\n    _;\n  }\n\n  modifier whenTransfered()\n  {\n    require(presaleInfo.state == PresaleState.Transfered);\n    _;\n  }\n\n  modifier whenExchangeRateSetted()\n  {\n    require(exchangeRate > 0);\n    _;\n  }\n\n  struct PresaleInfo\n  {\n    PresaleState state;\n    uint minContribution;\n    uint maxContribution;\n    uint startDate;\n    uint endDate;\n  }\n\n  struct Participant\n  {\n    bool admin;\n    bool isWhitelisted;\n    uint sum;\n  }\n\n  event AddedToWhiteList(address participant);\n  event Closed();\n  event Transfered();\n  event Paid(uint balance);\n  event GotTokens(address participant, uint tokens);\n  event TeamFeeSetted(uint feePerEther);\n  event PoolFeeSetted(uint feePerEther);\n  event ParticipateContributed(address participant);\n  event ParticipantWithdrawed(address participant, uint amount);\n\n  mapping (address=> Participant) participantsInfo;\n  PresaleInfo private presaleInfo;\n  address public owner;\n  address public distributionWallet;\n  address public poolDistributionWallet;\n  uint public exchangeRate;\n  uint private tokenDecimals;\n  uint contributionBalance;\n  uint feePerEtherTeam;\n  uint feePerEtherPool;\n  uint totalTeamFee;\n  uint totalPoolFee;\n\n  constructor() public\n  {\n    owner = msg.sender;\n  }\n\n  function init(address[] _admins, address _distributionWallet, address _poolDistributionWallet) external onlyOwner\n  {\n    presaleInfo.state = PresaleState.Opened;\n    distributionWallet = _distributionWallet;\n    poolDistributionWallet = _poolDistributionWallet;\n\n    for (uint i = 0; i < _admins.length; i++) {\n        addAdmin(_admins[i]);\n    }\n  }\n\n  function addAdmin(address admin) internal\n  {\n    participantsInfo[admin].admin = true;\n    participantsInfo[admin].isWhitelisted = true;\n  }\n\n  function contribute() onlyWhitelisted whenOpened payable onlyInDate external\n  {\n    checkContribution(msg.value);\n    Participant storage participant = participantsInfo[msg.sender];\n    participant.sum = participant.sum.add(msg.value);\n    contributionBalance = contributionBalance.add(msg.value);\n\n    emit ParticipateContributed(msg.sender);\n  }\n\n  function withdrawContribution() whenOpened external\n  {\n    Participant memory participant = participantsInfo[msg.sender];\n    contributionBalance = contributionBalance.sub(participant.sum);\n    require(msg.sender.call.value(participant.sum)());\n\n    emit ParticipantWithdrawed(msg.sender, participant.sum);\n    participant.sum = 0;\n  }\n\n  function checkContribution(uint value) internal view\n  {\n    if (presaleInfo.minContribution != 0 && presaleInfo.maxContribution !=0 )\n    {\n      require(value >= presaleInfo.minContribution && value <= presaleInfo.maxContribution);\n    }\n  }\n\n  function sendContribution(address token, uint gasLimit, bytes data) external onlyAdmin whenClosed\n  {\n    uint fee = calculateTotalValueFee(contributionBalance);\n    uint gas = (gasLimit > 0) ? gasLimit : gasleft();\n    require(\n        token.call.gas(gas).value(contributionBalance - fee)(data)\n    );\n\n    presaleInfo.state = PresaleState.Paid;\n\n    emit Paid(contributionBalance.sub(fee));\n  }\n\n  function getTokens(address tokenAddress) external\n  {\n    uint reward = calculateParticipantTokens(msg.sender);\n    ERC20 token = ERC20(tokenAddress);\n\n    require(token.transfer(msg.sender, reward));\n    emit GotTokens(msg.sender, reward);\n  }\n\n  function calculateParticipantTokens(address participant) internal view  returns(uint)\n  {\n    uint sum = participantsInfo[participant].sum;\n    uint fee = calculateTotalValueFee(sum);\n    sum = sum.sub(fee);\n\n    uint tokens = (10 ** tokenDecimals).mul(sum).div(exchangeRate);\n\n    return tokens;\n  }\n\n  function calculateTotalValueFee(uint value) internal view returns(uint)\n  {\n    uint fee = value.mul(feePerEtherPool.add(feePerEtherTeam)).div(1 ether);\n    return fee;\n  }\n\n  function calculateTeamValueFee(uint value) internal view returns(uint)\n  {\n    uint fee = value.mul(feePerEtherTeam).div(1 ether);\n    return fee;\n  }\n\n  function calculatePoolValueFee(uint value) internal view returns(uint)\n  {\n    uint fee = value.mul(feePerEtherPool).div(1 ether);\n    return fee;\n  }\n\n  function setPresaleSettings(uint _startDate, uint _endDate, uint _minContribution, uint _maxContribution) onlyAdmin\n  {\n    presaleInfo.startDate = _startDate;\n    presaleInfo.endDate = _endDate;\n    presaleInfo.minContribution = _minContribution;\n    presaleInfo.maxContribution = _maxContribution;\n  }\n\n  function setTokenRate(uint rate, uint decimals) external onlyAdmin\n  {\n    exchangeRate = rate;\n    tokenDecimals = decimals;\n  }\n\n  function setTeamFeePerEther(uint fee) external onlyOwner\n  {\n    feePerEtherTeam = fee;\n    emit TeamFeeSetted(fee);\n  }\n\n  function setPoolFeePerEther(uint fee) external onlyAdmin\n  {\n    feePerEtherPool = fee;\n    emit PoolFeeSetted(fee);\n  }\n\n  function sendFeeToTeam() external onlyOwner\n  {\n    distributionWallet.transfer(calculateTeamValueFee(contributionBalance));\n  }\n\n  function sendFeeToPoolAdmin() external onlyAdmin\n  {\n    poolDistributionWallet.transfer(calculatePoolValueFee(contributionBalance));\n  }\n\n  function addToWhitelist(address participant) external onlyAdmin\n  {\n    Participant storage participantInfo = participantsInfo[participant];\n    participantInfo.isWhitelisted = true;\n\n    emit AddedToWhiteList(participant);\n  }\n\n  function removeFromWhitelist(address participant) external onlyAdmin\n  {\n    Participant storage participantInfo = participantsInfo[participant];\n    participantInfo.isWhitelisted = false;\n  }\n\n  function getContributedSum() external view returns(uint)\n  {\n    return participantsInfo[msg.sender].sum;\n  }\n\n  function getContributedSumAfterFees() external view returns(uint)\n  {\n    return participantsInfo[msg.sender].sum.sub(calculateTotalValueFee(participantsInfo[msg.sender].sum));\n  }\n\n  function setTransferedState() external onlyAdmin\n  {\n    presaleInfo.state = PresaleState.Transfered;\n\n    emit Transfered();\n  }\n\n  function close() public onlyAdmin\n  {\n    presaleInfo.state = PresaleState.Closed;\n\n    emit Closed();\n  }\n}\n",
  "sourcePath": "/Users/dzhambulatkhasayev/Blockchain/PresalePoolM/PresalePool/contracts/contracts/PresalePool.sol",
  "compiler": {
    "name": "solc",
    "version": "0.4.23+commit.124ca40d.Emscripten.clang"
  },
  "schemaVersion": "2.0.0",
  "updatedAt": "2018-05-16T08:04:24.229Z"
}